:020000040800F2
:1000000080060020650100083F0300083D0300084A
:1000100000000000000000000000000000000000E0
:100020000000000000000000000000004303000882
:100030000000000000000000410300084503000824
:1000400077010008770100087701000877010008B0
:1000500077010008770100087701000877010008A0
:100060007701000877010008770100087701000890
:100070007701000877010008770100087701000880
:100080007701000851030008770100087701000894
:100090007701000877010008770100087701000860
:1000A0007701000877010008770100087701000850
:1000B0007701000877010008770100087701000840
:1000C00000F002F800F03EF80CA030C80838241800
:1000D0002D18671EA246AB4654465D46AC4201D180
:1000E00000F030F87E460F3EB6460FCC0126334274
:1000F00000D0FB1A3343A246AB4618475008000015
:1001000070080000103A02D378C878C1FAD85207B4
:1001100001D330C830C101D504680C6070470000BD
:100120000023002400250026103A01D378C1FBD813
:10013000520700D330C100D50B6070471FB51FBDFB
:1001400010B510BD00F02DF81146FFF7F7FF00F0D5
:100150001DF900F045F803B4FFF7F2FF03BC00F00F
:100160004BF800000748804707480047FEE7FEE7D6
:10017000FEE7FEE7FEE7FEE704480549054A064BB1
:10018000704700004D030008C100000880000020F7
:100190008006002080020020800200207047704707
:1001A0007047754600F024F8AE4605006946534690
:1001B000C008C000854618B020B5FFF7DDFF60BC61
:1001C000B64600260027C0C5C0C5C0C5C0C5C0C54D
:1001D000C0C5C0C5C0C5403D490849008D467047EF
:1001E00010B50446C046C0462046FFF7B4FF10BD18
:1001F000004870471000002001491820ABBEFEE700
:100200002600020070470000B0B5044600F00CF86C
:100210000546601C02D022480078041900F004F85A
:10022000401BA042FAD3B0BD054800687047C046E5
:100230001B48007802490A68101808607047C046D9
:100240007C00002080B50648016810220A43026045
:10025000032000F007F800F027F8002080BDC0461A
:100260000020024070B504467D20C0000C4E31785D
:1002700000F070FA01460B48006800F06BFA00F0DD
:1002800043F80125032C08D8002806D10025E843AF
:1002900021462A4600F01CF87460284670BDC0460E
:1002A000000000200800002082B0BE480168012242
:1002B00011430160016811400191019911074268E1
:1002C0000A434260406808400090009802B07047BE
:1002D000002805D40322034693430A4A9A1803E0F0
:1002E0000C220240064BD2188007C00E8901C9B209
:1002F0008140FF2383401068984308431060704793
:1003000014ED00E000E400E0401E010E01D00120E9
:1003100070470749074A5060074803680B400321AC
:10032000890759180160002090600721116070470B
:10033000FFFFFF0010E000E020ED00E0FEE7FEE739
:100340007047704780B5FFF773FF80BD70470000AE
:1003500010B509480168094A8918094B1980944960
:10036000016008480468A2185A80016006480168C4
:1003700001229143016010BD240400400180FFFF71
:100380007800002024400140101000402B4D002434
:100390006C60FFF757FF0126F104294802680A4301
:1003A000026005210904274F3A46083A13680B43B7
:1003B0001360391F0A68244B1A400A603968234ABF
:1003C00011403960796811407960F9681940F96025
:1003D000710402680A4302600320C0430921C90670
:1003E0000A6802400A603968014039607868022171
:1003F0000143796000F02CF80EE0204600F070F91F
:1004000000F07CF9642000F06BF92C708020FFF77D
:10041000FBFE2878401C28707002F9684140F960A2
:100420002878A028E9D05028F0D1002000F058F911
:1004300000F078F9642000F053F9E7E7700000203D
:100440001410024008080048FFFCFFFFFFFFF0FF08
:10045000F0B583B000F0BAF805210A029C480368A1
:10046000934303604A020368134303601122130499
:10047000046A1C4304620B0704689C430460490738
:1004800003680B4303601106426A0A434262454B0C
:100490005868022102910843586043480022826153
:1004A000026282600260FF24019402348169214368
:1004B000816181680327394381603C49C1623C4DB9
:1004C0004562066801252E430660481C1E680643E7
:1004D0001E6038488261026282600260866926433B
:1004E000866186683E438660C16231494162016827
:1004F0002943016058681021014359602E480B219F
:1005000081622E49C162C1682943C16001682943E3
:10051000016068042A4908600198000229490E68B0
:10052000864323483018401C08600920C006016833
:100530000C260E430660FF34186820431860224BD7
:100540005A606803596801435960186A0299084360
:1005500018621A60E80719680143196018680028D2
:1005600008D51868002805D51868002802D518682D
:100570000028F3D418682843186018460838016822
:10058000C90708D10168C90705D10168C90702D1A7
:100590000068C007F1D0186804210143196003B056
:1005A000F0BDC0461810024000040040FFFF0000EC
:1005B000FF7F000000400140001000403075000047
:1005C00000E100E010E400E008240140F0B581B053
:1005D0000126B1043D4A083A13680B4313607202C6
:1005E0000923DC062368134323603002009023684C
:1005F00083432360364B1D6880272F431F604025AF
:10060000ED431F682F401F600F273804226A824382
:100610002262206A084320623803196A8143196202
:10062000B003196A01431962B8022168814321604D
:100630000520800221680143216018682549014096
:100640001960186824490143196060692021014339
:1006500061616069284060614B2004012046B03828
:100660005969014359615869042188435861174900
:100670000868009A10430860184B00221A609A61BB
:100680001A62086830430860B1070A608A610A622A
:100690009869682505439D61186A304318629E6217
:1006A000DC625A631868304318600D20C0028B6901
:1006B00003438B61086A102303430B628E62CC6292
:1006C0004A6308683043086001B0F0BD1C10024066
:1006D00000040048CFFFCFFF1000100000200040B2
:1006E00010B5642806D8044C21684843642100F002
:1006F00031F8A06010BDC0462C20004013480168AE
:1007000040220A43026001682022914301601048A0
:10071000016804220A4302600121890202688A43B7
:10072000026070470948016820220A43026001689C
:100730004022914301600120800205490A6802437A
:100740000A6008680422904308607047140000485B
:100750001404004843088B421AD3002203098B4239
:1007600079D3030A8B425ED3030B8B4242D3030C33
:100770008B4227D30902FF2212BA030C8B4202D309
:100780001212090203D0030B8B4233D31AE0D3E0D9
:10079000411A8041401C704703460B4371D4430803
:1007A0008B42F5D3002203098B4254D3030A8B42B8
:1007B00039D3030B8B421DD3030C8B4202D39446D7
:1007C0006EE0090AC30B8B4201D3CB03C01A52411E
:1007D000830B8B4201D38B03C01A5241430B8B42D4
:1007E00001D34B03C01A5241030B8B4201D30B03BD
:1007F000C01A5241C30A8B4201D3CB02C01A5241E4
:10080000830A8B4201D38B02C01A5241430A8B42A6
:1008100001D34B02C01A5241030A8B4201D30B028F
:10082000C01A5241CDD2C3098B4201D3CB01C01AA9
:10083000524183098B4201D38B01C01A52414309B3
:100840008B4201D34B01C01A524103098B4201D3A1
:100850000B01C01A5241C3088B4201D3CB00C01A0E
:10086000524183088B4201D38B00C01A5241430886
:100870008B4201D34B00C01A5241411A5241100021
:100880007047CA0F00D04942031000D34042534082
:1008900000229C4603098B422DD3030A8B4212D3BC
:1008A0008901FC2212BA030A8B420CD389019211EE
:1008B0008B4208D3890192118B4204D3890137D02E
:1008C000921100E08909C3098B4201D3CB01C01A00
:1008D000524183098B4201D38B01C01A5241430913
:1008E0008B4201D34B01C01A524103098B4201D301
:1008F0000B01C01A5241C3088B4201D3CB00C01A6E
:10090000524183088B4201D38B00C01A5241D9D285
:1009100043088B4201D34B00C01A5241411A00D206
:1009200001465241104663465B1000D34042704777
:1009300063465B1000D3404201B50021004201D064
:10094000C9430846C046C04602BD00007009000801
:1009500000000020100000000401000880090008C9
:1009600010000020700600002001000800000000B8
:10097000010000000400000000127A0000000000E6
:04000005080000C12E
:00000001FF
