:020000040800F2
:1000000000400020D9070008350600083706000820
:1000100000000000000000000000000000000000E0
:100020000000000000000000000000003906000889
:1000300000000000000000003B0600083D0600082C
:1000400029080008290800082908000829080008CC
:1000500029080008290800082908000829080008BC
:1000600029080008290800082908000829080008AC
:10007000290800082908000829080008290800089C
:10008000290800086D05000829080008290800084B
:10009000290800082908000829080008290800087C
:1000A000290800082908000829080008290800086C
:1000B000290800082908000829080008290800085C
:1000C000002934D00123002210B488422CD301240B
:1000D0002407A14204D2814202D209011B01F8E7A0
:1000E000E400A14204D2814202D249005B00F8E759
:1000F000884201D3401A1A434C08A04202D3001B85
:100100005C0822438C08A04202D3001B9C082243B7
:10011000CC08A04202D3001BDC082243002803D0F5
:100120001B0901D00909E3E7100010BC704701B5B5
:10013000002000F00BF802BD0029F8D003B5FFF74E
:10014000C1FF0EBC4243891A1847C0467047C046DB
:1001500010B5064C2378002B07D1054B002B02D09D
:10016000044800E000BF0123237010BD0C000020F4
:100170000000000074080008044B10B5002B03D0E9
:100180000349044800E000BF10BDC0460000000065
:1001900010000020740800080D4A516980231B03D9
:1001A0000B4353610B4B1968A022D2020A431A6019
:1001B0005A6809490A405A609A68084802409A6099
:1001C000DA680240DA605A690A405A617047C046EC
:1001D0000010024000080048FFFCFFFFFFFFF0FF97
:1001E0000A4A516980239B020B4353619022D20536
:1001F000136803218B431360054B9A688A439A6006
:10020000DA6801390A43DA607047C04600100240DC
:100210000008004810B51D4B00221A6000F052FA89
:10022000FFF7BAFFFFF7DCFF00F0FCF912E0002057
:1002300000F0CCF8802000F067FA00F0D5F86420D8
:1002400000F0C4F8802000F05FFA114A13780133FF
:10025000DBB213700F4A516980239B004B405361FE
:100260000B4B1B78DAB2502BE1D0A02AEAD1002048
:1002700000F0ACF8802000F047FA00F0CFF86420DE
:1002800000F0A4F8024B00221A70DBE72C000020DB
:10029000280000200008004830B5424C63698021E6
:1002A000C9020B4363619023DB051868802292002A
:1002B00002431A601A683C4802401A603B4A1068C0
:1002C0008025284310601068403DA8431060186ADC
:1002D000374D28401862186A01431962116A35487F
:1002E00001401162106A802189010143116219687D
:1002F0003148014019601968304801401960186898
:10030000802149020143196019688020C00001431F
:10031000196011682A4D294011601568294929433F
:10032000116059692025A94359615D6980214900FF
:100330000D435D6153691843506153690420834341
:100340005361E3691943E1611F4A00211160916122
:100350001162E36903380343E3618023DB0519601D
:1003600099611962946968252C439461146A044365
:10037000146290629625ED00D562516314680443BF
:1003800014609C69D022D20122439A611A6A102417
:1003900022431A629862DD6259631A6802431A6046
:1003A00030BDC04600100240FFFEFFFF00040048C1
:1003B000FFFFF0FFFF0FFFFFFFFFFCFFFFF3FFFF5B
:1003C000CFFFCFFF100010000020004010B56428C0
:1003D00006D8044CE36A58436421FFF771FE60635A
:1003E00010BDC046002000409023DB055A69202143
:1003F0000A435A615A6907490A405A61064B5969CA
:100400008022D2000A435A615A6904218A435A6100
:100410007047C046FFFEFFFF000400489023DB0545
:100420005969802252000A435A615A6920218A433D
:100430005A61054B5A691C390A435A615A69034982
:100440000A405A617047C04600040048FFFBFFFFA6
:10045000F0B5C64600B5394B1A6839490A401A60EA
:100460001968A02212010A431A60196A88225203ED
:100470000A431A621A6833490A401A601968A022AE
:1004800012060A431A60596A882252050A435A62C0
:100490002D49CB6902221343CB612C4B00229A6178
:1004A0001A629A601A6098690224FF34A0462043B9
:1004B00098619868032738439860254EDE62254D81
:1004C0005D62186884460120644604431C608B69A1
:1004D0009C4680235B02644623438B611E4B9A61DA
:1004E0001A629A601A609A69444614439C619A6839
:1004F0003A439A60DE625D621A6802431A60CB6911
:1005000010221343CB61154B053A9A62144ADA6202
:10051000DA680243DA601A6802431A60114B8022DB
:1005200092021A60C420800019580F4A114080229C
:1005300012020A431A5080BCB846F0BD00040048BD
:10054000FFFAFFFFFFFFFFAF001002400004004072
:10055000FFFF0000FF7F000000400140001000404E
:100560003075000000E100E0FF00FFFF0B4A536A16
:100570000B498C4663441BB20A490B800A495162FD
:100580000A4A536A63441BB2094803805162094A0C
:10059000136901218B4313617047C046000400407A
:1005A0000180FFFF32000020FF7F0000004001407B
:1005B00030000020001000409022D20513680C216A
:1005C0000B431360154A916980239B000B43936191
:1005D000134B0021D960D868802292010243DA606F
:1005E0009A6A022002439A629960996880221206F0
:1005F0000A439A600A4B9B68002BFBDB084A93680E
:1006000001210B439360064B1B68DB07FBD5044AB3
:10061000936804210B4393607047C046001002406A
:100620000024014010B5FFF737FEFFF711FFFFF779
:10063000C3FF10BDFEE7FEE77047704710B500F03E
:1006400051F810BD82B00A4B99690122114399619A
:1006500099690A400092009ADA69802149050A43A3
:10066000DA61DB690B400193019B02B07047C04621
:100670000010024010B504000F4B1978FA208000DA
:10068000FFF71EFD01000D4B1868FFF719FD00F084
:100690009DF800280DD1032C01D901200AE001307A
:1006A00000222100404200F08DF8054B1C60002024
:1006B00000E0012010BDC04600000020080000201E
:1006C0000400002010B5064A136810210B43136084
:1006D0000320FFF7CFFFFFF7B5FF002010BDC04696
:1006E00000200240034A1168034B1B785B1813601B
:1006F0007047C0463400002000000020014B1868FD
:100700007047C0463400002070B50400FFF7F6FFC4
:100710000500631C02D0044B1B78E418FFF7EEFFC2
:10072000401BA042FAD370BD0000002070B5002825
:1007300011DB8308134DC0339B005C59032210402A
:10074000C000FC3216008640B44389010A40824052
:1007500022435A5170BD0F230340083B9B080633C8
:100760009B00094A944663445C6803221040C00021
:10077000FC3215008540AC4389010A408240224387
:100780005A60E7E700E100E000ED00E00138802377
:100790005B0498420FD2094A50600948036A1B0261
:1007A0001B0AC02109060B43036200239360073331
:1007B0001360002070470120FCE7C04610E000E015
:1007C00000ED00E010B5FFF7B1FF10BD10B5FFF769
:1007D000DDFF10BD704700000D488546FFF7FAFFAA
:1007E0000C480D490D4A002302E0D458C45004338C
:1007F000C4188C42F9D30A4A0A4C002301E0136062
:100800000432A242FBD300F011F8FFF703FDFEE72C
:1008100000400020000000200C0000209408000888
:100820000C00002038000020FEE7000070B5002614
:100830000C4C0D4D641BA410A64209D1002600F0FB
:1008400019F80A4C0A4D641BA410A64205D170BDCC
:10085000B300EB5898470136EEE7B300EB589847E2
:100860000136F2E78C0800088C08000890080008A0
:100870008C080008F8B5C046F8BC08BC9E46704716
:0C088000F8B5C046F8BC08BC9E467047A6
:04088C0079010008E6
:04089000510100080A
:0C089400010000000400000000127A00C7
:04000005080007D90F
:00000001FF
