:020000040800F2
:100000007806002065010008F30A0008F10A0008DC
:1000100000000000000000000000000000000000E0
:10002000000000000000000000000000690E000851
:100030000000000000000000F50A00086B0E000838
:1000400077010008770100087701000877010008B0
:1000500077010008770100087701000877010008A0
:100060007701000877010008770100087701000890
:100070007701000877010008770100087701000880
:100080007701000877010008770100087701000870
:100090007701000877010008770100087701000860
:1000A0007701000877010008770100087701000850
:1000B00077010008750E0008770100087701000835
:1000C00000F002F800F03EF80CA030C80838241800
:1000D0002D18671EA246AB4654465D46AC4201D180
:1000E00000F030F87E460F3EB6460FCC0126334274
:1000F00000D0FB1A3343A246AB4618474413000016
:1001000064130000103A02D378C878C1FAD85207B5
:1001100001D330C830C101D504680C6070470000BD
:100120000023002400250026103A01D378C1FBD813
:10013000520700D330C100D50B6070471FB51FBDFB
:1001400010B510BD00F02DF81146FFF7F7FF00F0D5
:1001500015FF00F045F803B4FFF7F2FF03BC00F011
:100160004BF800000748804707480047FEE7FEE7D6
:10017000FEE7FEE7FEE7FEE704480549054A064BB1
:1001800070470000730E0008C100000878000020CE
:10019000780600207802002078020020704770471F
:1001A0007047754600F024F8AE4605006946534690
:1001B000C008C000854618B020B5FFF7DDFF60BC61
:1001C000B64600260027C0C5C0C5C0C5C0C5C0C54D
:1001D000C0C5C0C5C0C5403D490849008D467047EF
:1001E00010B50446C046C0462046FFF7B4FF10BD18
:1001F000004870471000002001491820ABBEFEE700
:100200002600020070470000F0B58AB002900D6829
:10021000002D00D1B9E05E48029A824201D005204B
:1002200000E004201723DB06D2180A23DA410092EB
:10023000042A00D3009000273B463C4608912A46FA
:100240000BE01343F360079B641C0A681046E04010
:10025000BF1C1B1D002800D197E001200646A640C8
:100260003240F1D00490079303200346BB4003972C
:10027000DF4349680D4605406B1E012B069705912B
:1002800013D80192029A90683840089BDB68039F5C
:10029000BB4003439360C806C00FA0405368B343FC
:1002A0001646019A0343736006E0032D029E039FE6
:1002B00002D10546079B1EE0F068069908400899A0
:1002C0008B68BB400343F360022D079B13D11C20B6
:1002D00018400F218140E3089B00F3181D6A8D43ED
:1002E000089E3169814029431962079B7068029E0C
:1002F000032505900540BD40306806990840284315
:10030000306005988003800F0899049D9CD0534964
:100310000868284308600868284009900C201840A5
:100320000F218140032325469D43099B1A4EAB595B
:100330008B43009981401943A9510899154E35689E
:100340004868C3030FD515433560756883030FD420
:1003500095437560B568C3020FD49543B560F368E3
:10036000800210D56DE79543356075688303EFD53E
:1003700015437560B568C302EFD51543B560F368E2
:10038000800200D55DE793435CE70AB0F0BDC0464C
:1003900000100048000401400800014042690B467B
:1003A00093430A401104C91881617047002A02D0A2
:1003B00018228150704728228150704705480068F4
:1003C0007047C0461A48007802490A681018086049
:1003D0007047C0467400002010B58548016810229F
:1003E0000A4302600024204600F004F800F022F8DE
:1003F000204610BD70B504467D20C0000C4E3178FB
:1004000000F000FF01468448006800F0FBFE00F0A9
:1004100055FB0125032C08D8002806D10025E84308
:1004200021462A4600F01CF87460284670BDC0467C
:100430000000002082B009480168012211430160D8
:100440000168114001910199110742680A43426015
:10045000406808400090009802B0704718100240B1
:10046000002805D40322034693430A4A9A1803E05E
:100470000C220240064BD2188007C00E8901C9B277
:100480008140FF2383401068984308431060704701
:1004900014ED00E000E400E0F0B581B0002847D0A2
:1004A0000446534A1368012003408B4208D2136864
:1004B0000126B3430B431360126832408A4238D19D
:1004C000009121688A074B4B11D54A0707D50722AF
:1004D0001202484B1B681343464A1360454B1A6887
:1004E000F0239A43A3681343424A1360414BC90760
:1004F00022D13F49086801263040009A904205D930
:100500000868B04308600868C00712D12078400727
:1005100006D50720000219688143E0680843186087
:100520001A681007810F3548022912D2044650E09C
:100530000126304601B0F0BD616803290DD01A1FB5
:1005400002290FD0012912D1126892030646F0D574
:1005500011E0032926D12A4C3BE01A6BD203064650
:10056000E7D508E0126892010646E2D503E012687A
:1005700092070646DDD518680326B0430843186085
:10058000FFF71CFF07461C4D1A4B18680C21014051
:10059000606880008142ACD0FFF710FFC01BA8420A
:1005A000F2D9C6E70321CB031249896A0F240C4014
:1005B0001449095D94021A40240F134D2C5D9A4290
:1005C00002D033049A4200E00D4800F01BFE444381
:1005D000084B18680006000F0C49085CC4400E4820
:1005E000046000263046FFF705FF304601B0F0BD3D
:1005F00000200240041002408813000000127A001C
:10060000006CDC02301400082014000810140008EC
:10061000014800687047C04608000020F0B587B068
:1006200004460120002C00D142E204902078C0074B
:10063000F84E05940CD071680C200140042900D0BC
:1006400090E03068800303D56068002800D120E185
:100650002078800721D570680007800F0ED0706861
:100660000C210140082900D09DE00320C0037168DF
:1006700001400120C003814200D094E0306880072F
:10068000059C03D5E068012800D002E13068F8211C
:1006900088432169C90001433160059C2078000727
:1006A00024D42078400737D42078C00600D4D3E083
:1006B00005984069411D00D1C2E0012800D02FE11A
:1006C000706B042101437163706B012101437163FD
:1006D000FFF774FE0546706B800700D5B4E0FFF7A6
:1006E0006DFE411B03200229F5D9E1E1706AE16941
:1006F000002900D181E0012108437062FFF75EFE0E
:100700000546706A8007CCD4FFF758FE401B0228CC
:10071000F7D9032007B0F0BD012003900107F0696D
:100720000840029006D1F0690843F061F069084082
:10073000069006980191DF4F3868C0054AD40398A7
:100740000402386820433860FFF738FE05463868F1
:1007500020423FD1FFF732FE401B6428F7D9032027
:1007600007B0F0BD71680140082908D10320C0031B
:100770007168014001200004814200D161E7616895
:1007800001204704002900D116E1052900D12AE102
:10079000012900D12BE1010432688A4332608104CF
:1007A0003068884326E13068059CE168002936D02E
:1007B000012108433060FFF701FE054630688007DD
:1007C00000D563E7FFF7FAFD401B0228F6D90320A6
:1007D00007B0F0BD05988068002800D1B5E0052875
:1007E00000D1C8E0012800D1C9E0306A03998843EC
:1007F0003062306A04218843C4E00121884370627A
:10080000FFF7DCFD0546706A800700D449E7FFF773
:10081000D5FD401B0228F6D9032007B0F0BD012109
:1008200088433060FFF7CAFD05463068800700D472
:1008300033E7FFF7C3FD411B03200229F5D937E158
:10084000706B042188437063706BF82188430599AD
:100850008969C900014371630598007880060BD54A
:1008600071680C2001400C2939D1706BC00303D58D
:100870000598006A01280CD10598446A002C00D123
:10088000DFE070680C210140082905D1012C00D05F
:10089000C2E0049807B0F0BD01200206316804925E
:1008A000914331604706FFF789FD0546022C0BD1C5
:1008B000049C3068384200D1DBE0FFF77FFD411B2C
:1008C00003200229F5D9F3E03068384200D1B8E0BE
:1008D000FFF774FD411B03200229F5D9E8E0716898
:1008E0000140082905D10320C003716801408142FD
:1008F000BBD0706B0599096A002900D1A7E00121DE
:100900000C0420437063FFF759FD0546706B2042CD
:10091000B2D1FFF753FD411B03200229F6D9C7E0EE
:10092000706B042101437163706B01218843706314
:10093000FFF744FD0546706B80078DD5FFF73EFD40
:10094000411B03200229F6D9B2E0306A039988439B
:100950003062306A042188433062574CFFF72EFD25
:100960000546306A80071DD5FFF728FD411B03208F
:10097000A142F6D99CE0306A042101433162306A19
:100980000399084330624C4CFFF718FD0546306A66
:10099000800707D4FFF712FD401BA042F7D90320C0
:1009A00007B0F0BD02980028059C00D07CE6F069F5
:1009B00001998843F06177E6010432688A43326026
:1009C0008004316881433160FFF7F8FC0546059CDF
:1009D0003068384200D13BE6FFF7F0FC411B0320B2
:1009E0006429F5D964E0810432680A433260010465
:1009F000306808433060FFF7E1FC05463068384254
:100A000000D025E6FFF7DAFC401B6428F6D9032066
:100A100007B0F0BD001002400320C203706802401E
:100A2000F16A059CA36A9A42049D0DD10F221140E0
:100A3000236B994208D191040840E16A8842284614
:100A400036D1002007B0F0BD284607B0F0BD012127
:100A50000C04A0437063FFF7B1FC0546706B2042A5
:100A600000D109E7FFF7AAFC411B03200229F5D9B1
:100A70001EE0F06A0F218843059A116B0143F16271
:100A80007B20C00371688143D06A0843916A0143A7
:100A90007160306820433060FFF790FC0446306896
:100AA0003842CED1FFF78AFC011B03200229F6D978
:100AB00007B0F0BD0070004088130000401E010E1A
:100AC00001D0012070470749074A50600748036872
:100AD0000B4003218907591801600020906007210D
:100AE00011607047FFFFFF0010E000E020ED00E024
:100AF000FEE7FEE770470000F0B5A5B0BAA21BAB59
:100B000070CA70C3F0CAF0C3BEA216AB30CA30C3FD
:100B100070CA70C3C04A1592C04A1492C04A139258
:100B2000C04A129220261196BF4A1092BF4A0F92D5
:100B3000BF4A0E920A220D92BE4A0C92BE4A0B92F6
:100B4000BE4A0A92BE4A0992BE4A0892BE4A07921B
:100B5000BE4A0692BE4A059200240494BD4A0392FE
:100B6000BD4A0292BD4A019262380BAFBC4D1028BB
:100B700012D840237844007940008744080D0D0DB9
:100B80000D590D0D0D0D0D0D0D690D0D5C0005AF11
:100B90008023302951D160E01BA8452104E0A981C0
:100BA0004178401C002915D02A681206F7D42A681B
:100BB0001206F4D42A681206F1D42A681206F3D574
:100BC000EDE72868000608D42868000605D42868E0
:100BD000000602D428680006F3D5AC81E4484480BE
:100BE00004702396E448229022A8432104E0A981BE
:100BF0004178401C002915D02A681206F7D42A68CB
:100C00001206F4D42A681206F1D42A681206F3D523
:100C1000EDE72868000608D42868000605D428688F
:100C2000000602D428680006F3D5AC8125B0F0BDDB
:100C30000120430208AF30290FD0312914D03229C6
:100C400000D085E087481946FFF7A8FB0EA811E001
:100C50000120030201AF3029EFD18248002219465A
:100C6000FFF7A4FB16A805E07E4801221946FFF70E
:100C70009DFB12A8017803E0C9B2A9814178401C0C
:100C8000002915D02A681206F6D42A681206F3D471
:100C90002A681206F0D42A681206F3D5ECE7286811
:100CA000000608D42868000605D42868000602D487
:100CB00028680006F3D5AC81387803E0C0B2A8817B
:100CC00078787F1C002815D029680906F6D4296891
:100CD0000906F3D429680906F0D429680906F3D572
:100CE000ECE72868000608D42868000605D42868C0
:100CF000000602D428680006F3D5AC819C484480E5
:100D0000047023969C48229022A8432104E0A981E4
:100D10004178401C002915D02A681206F7D42A68A9
:100D20001206F4D42A681206F1D42A681206F3D502
:100D3000EDE72868000608D42868000605D428686E
:100D4000000602D428680006F3D5AC8125B0F0BDBA
:100D50001BA8452104E0A9814178401C002915D039
:100D60002A681206F7D42A681206F4D42A681206F2
:100D7000F1D42A681206F3D5EDE72868000608D4F6
:100D80002868000605D42868000602D428680006F2
:100D9000F3D5AC817648448004702396764822903F
:100DA00022A8432104E0A9814178401C002915D0E4
:100DB0002A681206F7D42A681206F4D42A681206A2
:100DC000F1D42A681206F3D5EDE72868000608D4A6
:100DD0002868000605D42868000602D428680006A2
:100DE000F3D5AC8125B0F0BD4552524F523A20495F
:100DF0006E76616C696420636F6D6D616E64210A4B
:100E0000000000005475726E696E67206F66662080
:100E10007468652000000000686520006F6E207413
:100E2000696E67205475726E207468656C696E67B0
:100E3000546F67674C45442E72656420442E0A0047
:100E40006E204C45677265652E0A0000204C4544B3
:100E5000626C756545442E0A6765204C6F72616E41
:100E60001C48004000080048704780B5FFF7AAFA08
:100E700080BD704710B588B038A001A90CC80CC15E
:100E80001CC81CC1DE49012008703A48026892065D
:100E900008D40268920605D40268920602D4026859
:100EA0009206F3D58A78002A4FD0CA78002A50D00B
:100EB00001AA432304E083815378521C002B0CD0F9
:100EC00004682406F7D404682406F4D404682406CD
:100ED000F1D404682406F3D5EDE70268120608D4BD
:100EE0000268120605D40268120602D402681206CD
:100EF000F3D5002282814A800A7020210791BF49E0
:100F0000069106A9432304E083814B78491C002BFA
:100F10000CD004682406F7D404682406F4D40468CA
:100F20002406F1D404682406F3D5EDE70168090628
:100F300008D40168090605D40168090602D40168CD
:100F40000906F3D5828108B010BD0089887008B009
:100F500010BD0089C87008B010BDC046436F6D6DEC
:100F6000616E6420746F6F206C6F6E67210A0000E1
:100F7000700000201C480040434D443E98B0FFF7ED
:100F80002BFA00240E940D941294119410940F9443
:100F90000C940B941694022513950A9510200E902C
:100FA00001200D9001051591C00314900AA8FFF7C8
:100FB00035FB002803D0EFF3108072B6FEE70994EA
:100FC000089407950727069706A801263146FFF7DC
:100FD00063FA002803D0EFF3108072B6FEE70E9498
:100FE000F10404917D4A10680843106010680840BD
:100FF0000690069870041168014311601168014061
:1010000006910698B10402911068084310601068B8
:10101000084006900698724872492246FFF7C6F9C2
:101020000D940C940B960F208001039021300A90B0
:1010300001970AAF6A483946FFF7E6F80C94092091
:101040000090059646040B9606200A90644839469F
:10105000FFF7DAF80C940B9605980A900098C006F2
:1010600000903946FFF7D0F803260E960D940C94A5
:101070000B95CC200A9000983946FFF7C5F80E96DC
:101080000D940C940B950A9657483946FFF7BCF817
:1010900005980E900D960C9412200B90B0020A90B9
:1010A00051483946FFF7B0F80E940D960C940B9505
:1010B000019840030A904C483946FFF7A5F8474A83
:1010C00010680499084310601068174608400A9099
:1010D0000A9846480AA90A4628C828C268C868C2A9
:1010E0003F4D2846FFF790F8FF2001900004296A41
:1010F0008143296211200004296A01432962B868EA
:1011000002990843B860059EF003394D2968814370
:101110002960FFF77DFAE121490200F073F8E860E9
:1011200028680821014329602868042101432960B7
:101130002868202738432860286830432860274BD8
:101140001868049A10431860186810400A900A98AA
:101150000E940D940C940B9603980A900AA92048BB
:10116000FFF752F8700723490860019800022249EE
:101170000A688243B003101808600B971F480A9052
:101180000AA8432104E029854178401C002915D094
:10119000EA691206F7D4EA691206F4D4EA6912067B
:1011A000F1D4EA691206F3D5EDE7E869000608D440
:1011B000E869000605D4E869000602D4E86900067B
:1011C000F3D52C850E4C20780028FCD0E078002840
:1011D000F9D0A078E178FFF78FFCF4E71410024013
:1011E00000080048E103000000040048FC13000868
:1011F0000048004000E100E01CE400E0434D443EB4
:101200007000002043088B421AD3002203098B424E
:1012100079D3030A8B425ED3030B8B4242D3030C78
:101220008B4227D30902FF2212BA030C8B4202D34E
:101230001212090203D0030B8B4233D31AE0D3E01E
:10124000411A8041401C704703460B4371D4430848
:101250008B42F5D3002203098B4254D3030A8B42FD
:1012600039D3030B8B421DD3030C8B4202D394461C
:101270006EE0090AC30B8B4201D3CB03C01A524163
:10128000830B8B4201D38B03C01A5241430B8B4219
:1012900001D34B03C01A5241030B8B4201D30B0302
:1012A000C01A5241C30A8B4201D3CB02C01A524129
:1012B000830A8B4201D38B02C01A5241430A8B42EC
:1012C00001D34B02C01A5241030A8B4201D30B02D5
:1012D000C01A5241CDD2C3098B4201D3CB01C01AEF
:1012E000524183098B4201D38B01C01A52414309F9
:1012F0008B4201D34B01C01A524103098B4201D3E7
:101300000B01C01A5241C3088B4201D3CB00C01A53
:10131000524183088B4201D38B00C01A52414308CB
:101320008B4201D34B00C01A5241411A5241100066
:101330007047CA0F00D04942031000D340425340C7
:1013400000229C4603098B422DD3030A8B4212D301
:101350008901FC2212BA030A8B420CD38901921133
:101360008B4208D3890192118B4204D3890137D073
:10137000921100E08909C3098B4201D3CB01C01A45
:10138000524183098B4201D38B01C01A5241430958
:101390008B4201D34B01C01A524103098B4201D346
:1013A0000B01C01A5241C3088B4201D3CB00C01AB3
:1013B000524183088B4201D38B00C01A5241D9D2CB
:1013C00043088B4201D34B00C01A5241411A00D24C
:1013D00001465241104663465B1000D340427047BD
:1013E00063465B1000D3404201B50021004201D0AA
:1013F000C9430846C046C04602BD00003000000098
:1014000002000000030000000000000000000000D7
:1014100000000000000000000102030406070809A4
:1014200002030405060708090A0B0C0D0E0F101025
:101430000102030405060708090A0B0C0D0E0F1024
:1014400060140008000000201000000004010008E3
:101450007014000810000020680600002001000839
:10146000010000000400000000127A0000000000EB
:04000005080000C12E
:00000001FF
